:020000020000FC
:0200000000C13D
:0200040043C1F6
:020008002AC10B
:02000C00F9C039
:02001000F7C037
:02001400F5C035
:02001800F3C033
:02001C00F1C031
:02002000EFC02F
:02002400EDC02D
:02002800EBC02B
:02002C00E9C029
:02003000E7C027
:02003400E5C025
:02003800E3C023
:02003C00E1C021
:02004000DFC01F
:02004400DDC01D
:02004800DBC01B
:02004C003BC1B6
:02005000D7C017
:10020000189504E00EBF0FE50DBF0FEF0ABB0FEF0F
:1002100004BB0EEF04BB00E001BB0FEF0BBB08BB40
:1002200005BB02BB0AE003BF01E30CBF02E009BF4C
:1002300008E0102F00E1D02E01E0C02E00E8B02E23
:100240000FE0602F07E0702F03E0802F09E005BF6B
:1002500000EC0BBF7894000000000000FCCF03B35B
:1002600041E0042369F4A0E7BB27C0E8DD270D9136
:1002700009930D9109930D9109930D91099390E8BC
:10028000A92FBB270C910BBB939518950BB7097F32
:100290000BBF00E008BB0F2D0D2131F40F2D012302
:1002A00041F4F8BAFF241895222730E00E946A0131
:1002B000F9CF222311F42395F5CF222731E00E94B4
:1002C0006A01F0CF04E00F151CF00BB706600BBFFE
:1002D000F3941895BB27DD27FF27AAE63C93A0E6F9
:1002E000C1E60AE04C915991889446955C2109F049
:1002F0004B294D930A95B1F7A8E64D910CEF4017A5
:1003000089F44D910FEB401769F4A0E6C1E6E0E7F0
:1003100042E1419344E3419346E5419348E74193E9
:08032000A99A01C0A9980895F3
:00000001FF
