:020000020000FC
:0200000000C13D
:020004002DC10C
:02000800FBC03B
:02000C00F9C039
:02001000F7C037
:02001400F5C035
:02001800F3C033
:02001C00F1C031
:02002000EFC02F
:02002400EDC02D
:02002800EBC02B
:02002C00E9C029
:02003000E7C027
:02003400E5C025
:02003800E3C023
:02003C00E1C021
:02004000DFC01F
:02004400DDC01D
:02004800DBC01B
:02004C0027C1CA
:02005000D7C017
:10020000189504E00EBF0FE50DBF0FEF0ABB0FEF0F
:1002100004BB0EEF04BB00E001BB0FEF0BBB08BB40
:1002200005BB02BB0AE003BF01E30CBF02E009BF4C
:1002300008E0102F00E1D02E01E0C02E00E8B02E23
:100240000FE0602F07E0702F03E0802F09E005BF6B
:1002500000EC0BBF7894000000000000FCCF189564
:100260000BB7097F0BBF00E008BBAD980F2D0D2128
:1002700039F40F2D012349F4F8BAAD9AFF241895EB
:10028000222730E00E945601F9CF222311F4239552
:10029000F5CF222731E00E945601F0CF04E00F1580
:1002A0001CF00BB706600BBFF3941895BB27DD2736
:1002B000FF27AAE63C93A0E6C1E60AE04C915991DB
:1002C000889446955C2109F04B294D930A95B1F726
:1002D000A8E64D910CEF401769F54D910FEB4017D3
:1002E00049F5A0E6C1E6E0E74D915991A395C39584
:1002F000462358235295452B41934D915991A395EF
:10030000C395462357235295452B41934D915991BF
:10031000A395C395462357235295452B41934D9161
:100320005991A395C395462358235295452B419344
:08033000A99A01C0A9980895E3
:00000001FF
