:020000020000FC
:0200000000C13D
:020004005DC1DC
:0200080044C1F1
:02000C00F9C039
:02001000F7C037
:02001400F5C035
:02001800F3C033
:02001C00F1C031
:020020002EC1EF
:02002400EDC02D
:02002800EBC02B
:02002C00E9C029
:02003000E7C027
:02003400E5C025
:02003800E3C023
:02003C00E1C021
:02004000DFC01F
:02004400DDC01D
:0200480017C1DE
:02004C0052C19F
:02005000D7C017
:10020000189504E00EBF0FE50DBF0FEF0ABB0FEF0F
:1002100004BB0EEF04BB00E001BB0FEF0BBB08BB40
:1002200005BB02BB0AE003BF01E30CBF02E009BF4C
:1002300000E00FBD05E00EBD00E00CBD01EE0DBD00
:1002400009B7046009BF08E0102F00E1D02E01E0DB
:10025000C02E00E8B02E0FE0602F07E0702F03E003
:10026000802F0FEFA02E09E005BF00EE0BBF7894A2
:10027000000000000000FCCF01E0A02A189501EE6C
:100280000DBD00E00CBD08E0A026A8BA0CEFA0222E
:10029000189503B341E0042369F4A0E7BB27C0E845
:1002A000DD270D9109930D9109930D9109930D91FE
:1002B000099390E8A92FBB270C910BBB9395189538
:1002C0000BB70F7B0BBF0F2D0D2129F40F2D012331
:1002D00039F4FF241895222730E00E948101F9CFDC
:1002E000222311F42395F5CF222731E00E948101CA
:1002F000F0CF04E00F151CF00BB700640BBFF394B4
:100300001895BB27DD27FF27AAE63C93A0E6C1E6A8
:100310000AE04C915991889446955C2109F04B294B
:100320004D930A95B1F7A8E64D910CEF401779F57A
:100330004D910FEB401759F5A0E6C1E6E0E74D916E
:100340005991A395C395462358235295452B419324
:100350004D915991A395C395462357235295452B0B
:1003600041934D915991A395C39546235723529597
:10037000452B41934D915991A395C39546235823FD
:100380005295452B419302E0A02AA99A01C0A99851
:020390000895CE
:00000001FF
